{
  "contractName": "Rent",
  "abi": [
    {
      "constant": true,
      "inputs": [
        {
          "name": "",
          "type": "uint256"
        }
      ],
      "name": "rentalCars",
      "outputs": [
        {
          "name": "",
          "type": "address"
        }
      ],
      "payable": false,
      "stateMutability": "view",
      "type": "function"
    },
    {
      "constant": true,
      "inputs": [
        {
          "name": "",
          "type": "address"
        }
      ],
      "name": "balanceOf",
      "outputs": [
        {
          "name": "",
          "type": "uint256"
        }
      ],
      "payable": false,
      "stateMutability": "view",
      "type": "function"
    },
    {
      "inputs": [],
      "payable": false,
      "stateMutability": "nonpayable",
      "type": "constructor"
    },
    {
      "constant": false,
      "inputs": [
        {
          "name": "carId",
          "type": "uint256"
        }
      ],
      "name": "rent",
      "outputs": [
        {
          "name": "",
          "type": "uint256"
        }
      ],
      "payable": false,
      "stateMutability": "nonpayable",
      "type": "function"
    },
    {
      "constant": true,
      "inputs": [],
      "name": "getRentals",
      "outputs": [
        {
          "name": "",
          "type": "address[16]"
        }
      ],
      "payable": false,
      "stateMutability": "view",
      "type": "function"
    },
    {
      "constant": false,
      "inputs": [
        {
          "name": "_to",
          "type": "address"
        },
        {
          "name": "_value",
          "type": "uint256"
        }
      ],
      "name": "transfer",
      "outputs": [
        {
          "name": "",
          "type": "bool"
        }
      ],
      "payable": false,
      "stateMutability": "nonpayable",
      "type": "function"
    }
  ],
  "bytecode": "0x608060405234801561001057600080fd5b50336000806101000a81548173ffffffffffffffffffffffffffffffffffffffff021916908373ffffffffffffffffffffffffffffffffffffffff1602179055506104b6806100606000396000f30060806040526004361061006d576000357c0100000000000000000000000000000000000000000000000000000000900463ffffffff1680632d999c4d146100725780635ea5da20146100df57806370a08231146101325780637456be7d14610189578063a9059cbb146101ca575b600080fd5b34801561007e57600080fd5b5061009d6004803603810190808035906020019092919050505061022f565b604051808273ffffffffffffffffffffffffffffffffffffffff1673ffffffffffffffffffffffffffffffffffffffff16815260200191505060405180910390f35b3480156100eb57600080fd5b506100f4610264565b6040518082601060200280838360005b8381101561011f578082015181840152602081019050610104565b5050505090500191505060405180910390f35b34801561013e57600080fd5b50610173600480360381019080803573ffffffffffffffffffffffffffffffffffffffff1690602001909291905050506102e5565b6040518082815260200191505060405180910390f35b34801561019557600080fd5b506101b4600480360381019080803590602001909291905050506102fd565b6040518082815260200191505060405180910390f35b3480156101d657600080fd5b50610215600480360381019080803573ffffffffffffffffffffffffffffffffffffffff16906020019092919080359060200190929190505050610372565b604051808215151515815260200191505060405180910390f35b60018160108110151561023e57fe5b016000915054906101000a900473ffffffffffffffffffffffffffffffffffffffff1681565b61026c610466565b60016010806020026040519081016040528092919082601080156102db576020028201915b8160009054906101000a900473ffffffffffffffffffffffffffffffffffffffff1673ffffffffffffffffffffffffffffffffffffffff1681526020019060010190808311610291575b5050505050905090565b60116020528060005260406000206000915090505481565b60008082101580156103105750600f8211155b151561031b57600080fd5b3360018360108110151561032b57fe5b0160006101000a81548173ffffffffffffffffffffffffffffffffffffffff021916908373ffffffffffffffffffffffffffffffffffffffff160217905550819050919050565b600081601160003373ffffffffffffffffffffffffffffffffffffffff1673ffffffffffffffffffffffffffffffffffffffff16815260200190815260200160002054101515156103c257600080fd5b81601160003373ffffffffffffffffffffffffffffffffffffffff1673ffffffffffffffffffffffffffffffffffffffff1681526020019081526020016000206000828254039250508190555081601160008573ffffffffffffffffffffffffffffffffffffffff1673ffffffffffffffffffffffffffffffffffffffff168152602001908152602001600020600082825401925050819055506001905092915050565b610200604051908101604052806010906020820280388339808201915050905050905600a165627a7a723058202e252e73fd059ab4cf681e334ac4f3505691139912ed016f6245f50adec4ab7e0029",
  "source": "pragma solidity ^0.4.17;\n\ncontract Rent {\n    address owner;\n    constructor () public {\n        owner = msg.sender;\n    }\n    address[16] public rentalCars;\n    mapping (address => uint ) public balanceOf;\n    \n    function rent(uint carId) public returns (uint) {  \n        require((carId >= 0 && carId <= 15) );\n        rentalCars[carId] = msg.sender;\n        return carId;\n    }\n    function getRentals() public view returns (address[16]) {\n        return rentalCars;\n    }   \n    function transfer(address _to, uint256 _value) public returns (bool) {\n        require(balanceOf[msg.sender] >= _value);\n        balanceOf[msg.sender] -= _value;\n        balanceOf[_to] += _value;\n        return true;\n    }\n}",
  "sourcePath": "/home/wayne/Desktop/blockchain/development3/final-project/contracts/Rent.sol",
  "compiler": {
    "name": "solc",
    "version": "0.4.24+commit.e67f0147.Emscripten.clang"
  },
  "schemaVersion": "2.0.1",
  "updatedAt": "2018-12-16T01:23:38.292Z"
}