{
  "contractName": "Return",
  "abi": [
    {
      "constant": true,
      "inputs": [
        {
          "name": "",
          "type": "uint256"
        }
      ],
      "name": "rentalCars",
      "outputs": [
        {
          "name": "",
          "type": "address"
        }
      ],
      "payable": false,
      "stateMutability": "view",
      "type": "function"
    },
    {
      "inputs": [],
      "payable": false,
      "stateMutability": "nonpayable",
      "type": "constructor"
    },
    {
      "constant": false,
      "inputs": [
        {
          "name": "carId",
          "type": "uint256"
        }
      ],
      "name": "returnCar",
      "outputs": [
        {
          "name": "",
          "type": "bool"
        }
      ],
      "payable": false,
      "stateMutability": "nonpayable",
      "type": "function"
    }
  ],
  "bytecode": "0x608060405234801561001057600080fd5b50336000806101000a81548173ffffffffffffffffffffffffffffffffffffffff021916908373ffffffffffffffffffffffffffffffffffffffff1602179055506101db806100606000396000f30060806040526004361061004c576000357c0100000000000000000000000000000000000000000000000000000000900463ffffffff16806317f956e0146100515780632d999c4d14610096575b600080fd5b34801561005d57600080fd5b5061007c60048036038101908080359060200190929190505050610103565b604051808215151515815260200191505060405180910390f35b3480156100a257600080fd5b506100c16004803603810190808035906020019092919050505061017a565b604051808273ffffffffffffffffffffffffffffffffffffffff1673ffffffffffffffffffffffffffffffffffffffff16815260200191505060405180910390f35b60008082101580156101165750600f8211155b151561012157600080fd5b600060018360108110151561013257fe5b0160006101000a81548173ffffffffffffffffffffffffffffffffffffffff021916908373ffffffffffffffffffffffffffffffffffffffff16021790555060019050919050565b60018160108110151561018957fe5b016000915054906101000a900473ffffffffffffffffffffffffffffffffffffffff16815600a165627a7a7230582005f19e5807cb706979bd0c2dde8448d2eb6a6c31f1e27150fde7c7b9cd34cb920029",
  "source": "pragma solidity ^0.4.17;\nimport \"../contracts/CarRentalToken.sol\";\n\ncontract Return {\n    address owner;\n    constructor () public {\n        owner = msg.sender;\n    }\n    address[16] public rentalCars;\n    \n    function returnCar(uint carId) public returns (bool) {  \n        require(carId >= 0 && carId <= 15 );\n        rentalCars[carId] = address(0);\n        return true;\n    }\n}",
  "sourcePath": "/home/wayne/Desktop/blockchain/development3/final-project/contracts/Return.sol",
  "compiler": {
    "name": "solc",
    "version": "0.4.24+commit.e67f0147.Emscripten.clang"
  },
  "schemaVersion": "2.0.1",
  "updatedAt": "2018-12-16T01:23:38.287Z"
}